{
  "_format": "hh-sol-artifact-1",
  "contractName": "Vesting",
  "sourceName": "contracts/Vesting.sol",
  "abi": [
    {
      "inputs": [
        {
          "internalType": "contract IERC20",
          "name": "token",
          "type": "address"
        }
      ],
      "stateMutability": "nonpayable",
      "type": "constructor"
    },
    {
      "anonymous": false,
      "inputs": [
        {
          "indexed": true,
          "internalType": "address",
          "name": "previousOwner",
          "type": "address"
        },
        {
          "indexed": true,
          "internalType": "address",
          "name": "newOwner",
          "type": "address"
        }
      ],
      "name": "OwnershipTransferred",
      "type": "event"
    },
    {
      "inputs": [],
      "name": "claim",
      "outputs": [
        {
          "internalType": "uint256",
          "name": "",
          "type": "uint256"
        }
      ],
      "stateMutability": "nonpayable",
      "type": "function"
    },
    {
      "inputs": [
        {
          "internalType": "address",
          "name": "addy",
          "type": "address"
        }
      ],
      "name": "getCurrentVestAmountForAddress",
      "outputs": [
        {
          "internalType": "uint256",
          "name": "",
          "type": "uint256"
        }
      ],
      "stateMutability": "view",
      "type": "function"
    },
    {
      "inputs": [],
      "name": "owner",
      "outputs": [
        {
          "internalType": "address",
          "name": "",
          "type": "address"
        }
      ],
      "stateMutability": "view",
      "type": "function"
    },
    {
      "inputs": [],
      "name": "renounceOwnership",
      "outputs": [],
      "stateMutability": "nonpayable",
      "type": "function"
    },
    {
      "inputs": [
        {
          "internalType": "address",
          "name": "newOwner",
          "type": "address"
        }
      ],
      "name": "transferOwnership",
      "outputs": [],
      "stateMutability": "nonpayable",
      "type": "function"
    },
    {
      "inputs": [
        {
          "internalType": "address",
          "name": "receiver",
          "type": "address"
        },
        {
          "internalType": "uint256",
          "name": "amount",
          "type": "uint256"
        }
      ],
      "name": "vest",
      "outputs": [],
      "stateMutability": "nonpayable",
      "type": "function"
    },
    {
      "inputs": [
        {
          "internalType": "address",
          "name": "",
          "type": "address"
        }
      ],
      "name": "vests",
      "outputs": [
        {
          "internalType": "uint256",
          "name": "amount",
          "type": "uint256"
        },
        {
          "internalType": "uint256",
          "name": "timestamp",
          "type": "uint256"
        },
        {
          "internalType": "uint256",
          "name": "collected",
          "type": "uint256"
        }
      ],
      "stateMutability": "view",
      "type": "function"
    }
  ],
  "bytecode": "0x60806040523480156200001157600080fd5b50604051620010bb380380620010bb833981810160405281019062000037919062000182565b620000576200004b6200009f60201b60201c565b620000a760201b60201c565b80600260006101000a81548173ffffffffffffffffffffffffffffffffffffffff021916908373ffffffffffffffffffffffffffffffffffffffff1602179055505062000210565b600033905090565b60008060009054906101000a900473ffffffffffffffffffffffffffffffffffffffff169050816000806101000a81548173ffffffffffffffffffffffffffffffffffffffff021916908373ffffffffffffffffffffffffffffffffffffffff1602179055508173ffffffffffffffffffffffffffffffffffffffff168173ffffffffffffffffffffffffffffffffffffffff167f8be0079c531659141344cd1fd0a4f28419497f9722a3daafe3b4186f6b6457e060405160405180910390a35050565b6000815190506200017c81620001f6565b92915050565b6000602082840312156200019557600080fd5b6000620001a5848285016200016b565b91505092915050565b6000620001bb82620001d6565b9050919050565b6000620001cf82620001ae565b9050919050565b600073ffffffffffffffffffffffffffffffffffffffff82169050919050565b6200020181620001c2565b81146200020d57600080fd5b50565b610e9b80620002206000396000f3fe608060405234801561001057600080fd5b506004361061007d5760003560e01c8063715018a61161005b578063715018a6146100ee5780638da5cb5b146100f8578063a062578d14610116578063f2fde38b146101465761007d565b80632797c6c8146100825780634e71d92d1461009e5780635c712bc0146100bc575b600080fd5b61009c600480360381019061009791906109c2565b610162565b005b6100a6610413565b6040516100b39190610c58565b60405180910390f35b6100d660048036038101906100d19190610999565b6105b0565b6040516100e593929190610c73565b60405180910390f35b6100f66105da565b005b610100610662565b60405161010d9190610b54565b60405180910390f35b610130600480360381019061012b9190610999565b61068b565b60405161013d9190610c58565b60405180910390f35b610160600480360381019061015b9190610999565b610704565b005b61016a6107fc565b73ffffffffffffffffffffffffffffffffffffffff16610188610662565b73ffffffffffffffffffffffffffffffffffffffff16146101de576040517f08c379a00000000000000000000000000000000000000000000000000000000081526004016101d590610c18565b60405180910390fd5b6000600260009054906101000a900473ffffffffffffffffffffffffffffffffffffffff1673ffffffffffffffffffffffffffffffffffffffff1663dd62ed3e610226610662565b306040518363ffffffff1660e01b8152600401610244929190610b6f565b60206040518083038186803b15801561025c57600080fd5b505afa158015610270573d6000803e3d6000fd5b505050506040513d601f19601f820116820180604052508101906102949190610a27565b9050818110156102d9576040517f08c379a00000000000000000000000000000000000000000000000000000000081526004016102d090610c38565b60405180910390fd5b600260009054906101000a900473ffffffffffffffffffffffffffffffffffffffff1673ffffffffffffffffffffffffffffffffffffffff166323b872dd61031f610662565b30856040518463ffffffff1660e01b815260040161033f93929190610b98565b602060405180830381600087803b15801561035957600080fd5b505af115801561036d573d6000803e3d6000fd5b505050506040513d601f19601f8201168201806040525081019061039191906109fe565b5060405180606001604052808381526020014281526020016000815250600160008573ffffffffffffffffffffffffffffffffffffffff1673ffffffffffffffffffffffffffffffffffffffff168152602001908152602001600020600082015181600001556020820151816001015560408201518160020155905050505050565b6000600160003373ffffffffffffffffffffffffffffffffffffffff1673ffffffffffffffffffffffffffffffffffffffff16815260200190815260200160002060000154600160003373ffffffffffffffffffffffffffffffffffffffff1673ffffffffffffffffffffffffffffffffffffffff16815260200190815260200160002060020154106104a557600080fd5b60006104b03361068b565b9050600260009054906101000a900473ffffffffffffffffffffffffffffffffffffffff1673ffffffffffffffffffffffffffffffffffffffff1663a9059cbb33836040518363ffffffff1660e01b815260040161050f929190610bcf565b602060405180830381600087803b15801561052957600080fd5b505af115801561053d573d6000803e3d6000fd5b505050506040513d601f19601f8201168201806040525081019061056191906109fe565b5080600160003373ffffffffffffffffffffffffffffffffffffffff1673ffffffffffffffffffffffffffffffffffffffff168152602001908152602001600020600201819055508091505090565b60016020528060005260406000206000915090508060000154908060010154908060020154905083565b6105e26107fc565b73ffffffffffffffffffffffffffffffffffffffff16610600610662565b73ffffffffffffffffffffffffffffffffffffffff1614610656576040517f08c379a000000000000000000000000000000000000000000000000000000000815260040161064d90610c18565b60405180910390fd5b6106606000610804565b565b60008060009054906101000a900473ffffffffffffffffffffffffffffffffffffffff16905090565b60006106fd600160008473ffffffffffffffffffffffffffffffffffffffff1673ffffffffffffffffffffffffffffffffffffffff16815260200190815260200160002060405180606001604052908160008201548152602001600182015481526020016002820154815250506108c8565b9050919050565b61070c6107fc565b73ffffffffffffffffffffffffffffffffffffffff1661072a610662565b73ffffffffffffffffffffffffffffffffffffffff1614610780576040517f08c379a000000000000000000000000000000000000000000000000000000000815260040161077790610c18565b60405180910390fd5b600073ffffffffffffffffffffffffffffffffffffffff168173ffffffffffffffffffffffffffffffffffffffff1614156107f0576040517f08c379a00000000000000000000000000000000000000000000000000000000081526004016107e790610bf8565b60405180910390fd5b6107f981610804565b50565b600033905090565b60008060009054906101000a900473ffffffffffffffffffffffffffffffffffffffff169050816000806101000a81548173ffffffffffffffffffffffffffffffffffffffff021916908373ffffffffffffffffffffffffffffffffffffffff1602179055508173ffffffffffffffffffffffffffffffffffffffff168173ffffffffffffffffffffffffffffffffffffffff167f8be0079c531659141344cd1fd0a4f28419497f9722a3daafe3b4186f6b6457e060405160405180910390a35050565b60008062278d008360200151426108df9190610d46565b84600001516108ee9190610cec565b6108f89190610cbb565b9050600083604001518261090c9190610d46565b90506000846040015185600001516109249190610d46565b90508181101561093957809350505050610940565b8193505050505b919050565b60008135905061095481610e20565b92915050565b60008151905061096981610e37565b92915050565b60008135905061097e81610e4e565b92915050565b60008151905061099381610e4e565b92915050565b6000602082840312156109ab57600080fd5b60006109b984828501610945565b91505092915050565b600080604083850312156109d557600080fd5b60006109e385828601610945565b92505060206109f48582860161096f565b9150509250929050565b600060208284031215610a1057600080fd5b6000610a1e8482850161095a565b91505092915050565b600060208284031215610a3957600080fd5b6000610a4784828501610984565b91505092915050565b610a5981610d7a565b82525050565b6000610a6c602683610caa565b91507f4f776e61626c653a206e6577206f776e657220697320746865207a65726f206160008301527f64647265737300000000000000000000000000000000000000000000000000006020830152604082019050919050565b6000610ad2602083610caa565b91507f4f776e61626c653a2063616c6c6572206973206e6f7420746865206f776e65726000830152602082019050919050565b6000610b12601483610caa565b91507f4e6f7420656e6f75676820616c6c6f77616e63650000000000000000000000006000830152602082019050919050565b610b4e81610db8565b82525050565b6000602082019050610b696000830184610a50565b92915050565b6000604082019050610b846000830185610a50565b610b916020830184610a50565b9392505050565b6000606082019050610bad6000830186610a50565b610bba6020830185610a50565b610bc76040830184610b45565b949350505050565b6000604082019050610be46000830185610a50565b610bf16020830184610b45565b9392505050565b60006020820190508181036000830152610c1181610a5f565b9050919050565b60006020820190508181036000830152610c3181610ac5565b9050919050565b60006020820190508181036000830152610c5181610b05565b9050919050565b6000602082019050610c6d6000830184610b45565b92915050565b6000606082019050610c886000830186610b45565b610c956020830185610b45565b610ca26040830184610b45565b949350505050565b600082825260208201905092915050565b6000610cc682610db8565b9150610cd183610db8565b925082610ce157610ce0610df1565b5b828204905092915050565b6000610cf782610db8565b9150610d0283610db8565b9250817fffffffffffffffffffffffffffffffffffffffffffffffffffffffffffffffff0483118215151615610d3b57610d3a610dc2565b5b828202905092915050565b6000610d5182610db8565b9150610d5c83610db8565b925082821015610d6f57610d6e610dc2565b5b828203905092915050565b6000610d8582610d98565b9050919050565b60008115159050919050565b600073ffffffffffffffffffffffffffffffffffffffff82169050919050565b6000819050919050565b7f4e487b7100000000000000000000000000000000000000000000000000000000600052601160045260246000fd5b7f4e487b7100000000000000000000000000000000000000000000000000000000600052601260045260246000fd5b610e2981610d7a565b8114610e3457600080fd5b50565b610e4081610d8c565b8114610e4b57600080fd5b50565b610e5781610db8565b8114610e6257600080fd5b5056fea264697066735822122005eed1a23ff53ec155ee07a1118fde3b3e12d7f26fc0e04e5f76eddd6c6b9ba164736f6c63430008000033",
  "linkReferences": {},
  "deployedLinkReferences": {}
}