{
  "_format": "hh-sol-artifact-1",
  "contractName": "Vesting",
  "sourceName": "contracts/Vesting.sol",
  "abi": [
    {
      "inputs": [
        {
          "internalType": "contract IERC20",
          "name": "token",
          "type": "address"
        }
      ],
      "stateMutability": "nonpayable",
      "type": "constructor"
    },
    {
      "anonymous": false,
      "inputs": [
        {
          "indexed": true,
          "internalType": "address",
          "name": "previousOwner",
          "type": "address"
        },
        {
          "indexed": true,
          "internalType": "address",
          "name": "newOwner",
          "type": "address"
        }
      ],
      "name": "OwnershipTransferred",
      "type": "event"
    },
    {
      "inputs": [],
      "name": "claim",
      "outputs": [
        {
          "internalType": "uint256",
          "name": "",
          "type": "uint256"
        }
      ],
      "stateMutability": "nonpayable",
      "type": "function"
    },
    {
      "inputs": [
        {
          "internalType": "address",
          "name": "addy",
          "type": "address"
        }
      ],
      "name": "getCollectedAmountForAddress",
      "outputs": [
        {
          "internalType": "uint256",
          "name": "",
          "type": "uint256"
        }
      ],
      "stateMutability": "view",
      "type": "function"
    },
    {
      "inputs": [
        {
          "internalType": "address",
          "name": "addy",
          "type": "address"
        }
      ],
      "name": "getCurrentVestAmountForAddress",
      "outputs": [
        {
          "internalType": "uint256",
          "name": "",
          "type": "uint256"
        }
      ],
      "stateMutability": "view",
      "type": "function"
    },
    {
      "inputs": [
        {
          "internalType": "address",
          "name": "addy",
          "type": "address"
        }
      ],
      "name": "getTotalVestAmountForAddress",
      "outputs": [
        {
          "internalType": "uint256",
          "name": "",
          "type": "uint256"
        }
      ],
      "stateMutability": "view",
      "type": "function"
    },
    {
      "inputs": [],
      "name": "owner",
      "outputs": [
        {
          "internalType": "address",
          "name": "",
          "type": "address"
        }
      ],
      "stateMutability": "view",
      "type": "function"
    },
    {
      "inputs": [],
      "name": "renounceOwnership",
      "outputs": [],
      "stateMutability": "nonpayable",
      "type": "function"
    },
    {
      "inputs": [
        {
          "internalType": "address",
          "name": "newOwner",
          "type": "address"
        }
      ],
      "name": "transferOwnership",
      "outputs": [],
      "stateMutability": "nonpayable",
      "type": "function"
    },
    {
      "inputs": [
        {
          "internalType": "address",
          "name": "receiver",
          "type": "address"
        },
        {
          "internalType": "uint256",
          "name": "amount",
          "type": "uint256"
        }
      ],
      "name": "vest",
      "outputs": [],
      "stateMutability": "nonpayable",
      "type": "function"
    }
  ],
  "bytecode": "0x608060405234801561001057600080fd5b5060405162000dd338038062000dd383398181016040528101906100349190610178565b61005061004561009760201b60201c565b61009f60201b60201c565b80600260006101000a81548173ffffffffffffffffffffffffffffffffffffffff021916908373ffffffffffffffffffffffffffffffffffffffff160217905550506101fc565b600033905090565b60008060009054906101000a900473ffffffffffffffffffffffffffffffffffffffff169050816000806101000a81548173ffffffffffffffffffffffffffffffffffffffff021916908373ffffffffffffffffffffffffffffffffffffffff1602179055508173ffffffffffffffffffffffffffffffffffffffff168173ffffffffffffffffffffffffffffffffffffffff167f8be0079c531659141344cd1fd0a4f28419497f9722a3daafe3b4186f6b6457e060405160405180910390a35050565b600081519050610172816101e5565b92915050565b60006020828403121561018a57600080fd5b600061019884828501610163565b91505092915050565b60006101ac826101c5565b9050919050565b60006101be826101a1565b9050919050565b600073ffffffffffffffffffffffffffffffffffffffff82169050919050565b6101ee816101b3565b81146101f957600080fd5b50565b610bc7806200020c6000396000f3fe608060405234801561001057600080fd5b50600436106100885760003560e01c8063715018a61161005b578063715018a6146101275780638da5cb5b14610131578063a062578d1461014f578063f2fde38b1461017f57610088565b806309b4af7f1461008d5780632797c6c8146100bd57806345408b39146100d95780634e71d92d14610109575b600080fd5b6100a760048036038101906100a291906107e5565b61019b565b6040516100b491906109bb565b60405180910390f35b6100d760048036038101906100d2919061080e565b6101e7565b005b6100f360048036038101906100ee91906107e5565b6102e3565b60405161010091906109bb565b60405180910390f35b61011161032f565b60405161011e91906109bb565b60405180910390f35b61012f61043b565b005b6101396104c3565b6040516101469190610937565b60405180910390f35b610169600480360381019061016491906107e5565b6104ec565b60405161017691906109bb565b60405180910390f35b610199600480360381019061019491906107e5565b610565565b005b6000600160008373ffffffffffffffffffffffffffffffffffffffff1673ffffffffffffffffffffffffffffffffffffffff168152602001908152602001600020600001549050919050565b6101ef61065d565b73ffffffffffffffffffffffffffffffffffffffff1661020d6104c3565b73ffffffffffffffffffffffffffffffffffffffff1614610263576040517f08c379a000000000000000000000000000000000000000000000000000000000815260040161025a9061099b565b60405180910390fd5b60405180606001604052808281526020014281526020016000815250600160008473ffffffffffffffffffffffffffffffffffffffff1673ffffffffffffffffffffffffffffffffffffffff1681526020019081526020016000206000820151816000015560208201518160010155604082015181600201559050505050565b6000600160008373ffffffffffffffffffffffffffffffffffffffff1673ffffffffffffffffffffffffffffffffffffffff168152602001908152602001600020600201549050919050565b60008061033b336104ec565b9050600260009054906101000a900473ffffffffffffffffffffffffffffffffffffffff1673ffffffffffffffffffffffffffffffffffffffff1663a9059cbb33836040518363ffffffff1660e01b815260040161039a929190610952565b602060405180830381600087803b1580156103b457600080fd5b505af11580156103c8573d6000803e3d6000fd5b505050506040513d601f19601f820116820180604052508101906103ec919061084a565b5080600160003373ffffffffffffffffffffffffffffffffffffffff1673ffffffffffffffffffffffffffffffffffffffff168152602001908152602001600020600201819055508091505090565b61044361065d565b73ffffffffffffffffffffffffffffffffffffffff166104616104c3565b73ffffffffffffffffffffffffffffffffffffffff16146104b7576040517f08c379a00000000000000000000000000000000000000000000000000000000081526004016104ae9061099b565b60405180910390fd5b6104c16000610665565b565b60008060009054906101000a900473ffffffffffffffffffffffffffffffffffffffff16905090565b600061055e600160008473ffffffffffffffffffffffffffffffffffffffff1673ffffffffffffffffffffffffffffffffffffffff1681526020019081526020016000206040518060600160405290816000820154815260200160018201548152602001600282015481525050610729565b9050919050565b61056d61065d565b73ffffffffffffffffffffffffffffffffffffffff1661058b6104c3565b73ffffffffffffffffffffffffffffffffffffffff16146105e1576040517f08c379a00000000000000000000000000000000000000000000000000000000081526004016105d89061099b565b60405180910390fd5b600073ffffffffffffffffffffffffffffffffffffffff168173ffffffffffffffffffffffffffffffffffffffff161415610651576040517f08c379a00000000000000000000000000000000000000000000000000000000081526004016106489061097b565b60405180910390fd5b61065a81610665565b50565b600033905090565b60008060009054906101000a900473ffffffffffffffffffffffffffffffffffffffff169050816000806101000a81548173ffffffffffffffffffffffffffffffffffffffff021916908373ffffffffffffffffffffffffffffffffffffffff1602179055508173ffffffffffffffffffffffffffffffffffffffff168173ffffffffffffffffffffffffffffffffffffffff167f8be0079c531659141344cd1fd0a4f28419497f9722a3daafe3b4186f6b6457e060405160405180910390a35050565b60008062278d008360200151426107409190610a72565b846000015161074f9190610a18565b61075991906109e7565b9050600083604001518261076d9190610a72565b90506000846040015185600001516107859190610a72565b90508181101561079a578093505050506107a1565b8193505050505b919050565b6000813590506107b581610b4c565b92915050565b6000815190506107ca81610b63565b92915050565b6000813590506107df81610b7a565b92915050565b6000602082840312156107f757600080fd5b6000610805848285016107a6565b91505092915050565b6000806040838503121561082157600080fd5b600061082f858286016107a6565b9250506020610840858286016107d0565b9150509250929050565b60006020828403121561085c57600080fd5b600061086a848285016107bb565b91505092915050565b61087c81610aa6565b82525050565b600061088f6026836109d6565b91507f4f776e61626c653a206e6577206f776e657220697320746865207a65726f206160008301527f64647265737300000000000000000000000000000000000000000000000000006020830152604082019050919050565b60006108f56020836109d6565b91507f4f776e61626c653a2063616c6c6572206973206e6f7420746865206f776e65726000830152602082019050919050565b61093181610ae4565b82525050565b600060208201905061094c6000830184610873565b92915050565b60006040820190506109676000830185610873565b6109746020830184610928565b9392505050565b6000602082019050818103600083015261099481610882565b9050919050565b600060208201905081810360008301526109b4816108e8565b9050919050565b60006020820190506109d06000830184610928565b92915050565b600082825260208201905092915050565b60006109f282610ae4565b91506109fd83610ae4565b925082610a0d57610a0c610b1d565b5b828204905092915050565b6000610a2382610ae4565b9150610a2e83610ae4565b9250817fffffffffffffffffffffffffffffffffffffffffffffffffffffffffffffffff0483118215151615610a6757610a66610aee565b5b828202905092915050565b6000610a7d82610ae4565b9150610a8883610ae4565b925082821015610a9b57610a9a610aee565b5b828203905092915050565b6000610ab182610ac4565b9050919050565b60008115159050919050565b600073ffffffffffffffffffffffffffffffffffffffff82169050919050565b6000819050919050565b7f4e487b7100000000000000000000000000000000000000000000000000000000600052601160045260246000fd5b7f4e487b7100000000000000000000000000000000000000000000000000000000600052601260045260246000fd5b610b5581610aa6565b8114610b6057600080fd5b50565b610b6c81610ab8565b8114610b7757600080fd5b50565b610b8381610ae4565b8114610b8e57600080fd5b5056fea26469706673582212208eb833d0e02b60c5d479abb34228c3cab070a573d9e80e7b6b6d025d96725aa264736f6c63430008000033",
  "linkReferences": {},
  "deployedLinkReferences": {}
}