{
  "_format": "hh-sol-artifact-1",
  "contractName": "Vesting",
  "sourceName": "contracts/Vesting.sol",
  "abi": [
    {
      "inputs": [
        {
          "internalType": "contract IERC20",
          "name": "token",
          "type": "address"
        }
      ],
      "stateMutability": "nonpayable",
      "type": "constructor"
    },
    {
      "anonymous": false,
      "inputs": [
        {
          "indexed": true,
          "internalType": "address",
          "name": "previousOwner",
          "type": "address"
        },
        {
          "indexed": true,
          "internalType": "address",
          "name": "newOwner",
          "type": "address"
        }
      ],
      "name": "OwnershipTransferred",
      "type": "event"
    },
    {
      "inputs": [],
      "name": "claim",
      "outputs": [
        {
          "internalType": "uint256",
          "name": "",
          "type": "uint256"
        }
      ],
      "stateMutability": "nonpayable",
      "type": "function"
    },
    {
      "inputs": [
        {
          "internalType": "address",
          "name": "addy",
          "type": "address"
        }
      ],
      "name": "getCurrentVestAmountForAddress",
      "outputs": [
        {
          "internalType": "uint256",
          "name": "",
          "type": "uint256"
        }
      ],
      "stateMutability": "view",
      "type": "function"
    },
    {
      "inputs": [],
      "name": "owner",
      "outputs": [
        {
          "internalType": "address",
          "name": "",
          "type": "address"
        }
      ],
      "stateMutability": "view",
      "type": "function"
    },
    {
      "inputs": [],
      "name": "renounceOwnership",
      "outputs": [],
      "stateMutability": "nonpayable",
      "type": "function"
    },
    {
      "inputs": [
        {
          "internalType": "address",
          "name": "newOwner",
          "type": "address"
        }
      ],
      "name": "transferOwnership",
      "outputs": [],
      "stateMutability": "nonpayable",
      "type": "function"
    },
    {
      "inputs": [
        {
          "internalType": "address",
          "name": "receiver",
          "type": "address"
        },
        {
          "internalType": "uint256",
          "name": "amount",
          "type": "uint256"
        }
      ],
      "name": "vest",
      "outputs": [],
      "stateMutability": "nonpayable",
      "type": "function"
    },
    {
      "inputs": [
        {
          "internalType": "address",
          "name": "",
          "type": "address"
        }
      ],
      "name": "vests",
      "outputs": [
        {
          "internalType": "uint256",
          "name": "amount",
          "type": "uint256"
        },
        {
          "internalType": "uint256",
          "name": "timestamp",
          "type": "uint256"
        },
        {
          "internalType": "uint256",
          "name": "collected",
          "type": "uint256"
        }
      ],
      "stateMutability": "view",
      "type": "function"
    }
  ],
  "bytecode": "0x60806040523480156200001157600080fd5b50604051620011c6380380620011c6833981810160405281019062000037919062000182565b620000576200004b6200009f60201b60201c565b620000a760201b60201c565b80600260006101000a81548173ffffffffffffffffffffffffffffffffffffffff021916908373ffffffffffffffffffffffffffffffffffffffff1602179055505062000210565b600033905090565b60008060009054906101000a900473ffffffffffffffffffffffffffffffffffffffff169050816000806101000a81548173ffffffffffffffffffffffffffffffffffffffff021916908373ffffffffffffffffffffffffffffffffffffffff1602179055508173ffffffffffffffffffffffffffffffffffffffff168173ffffffffffffffffffffffffffffffffffffffff167f8be0079c531659141344cd1fd0a4f28419497f9722a3daafe3b4186f6b6457e060405160405180910390a35050565b6000815190506200017c81620001f6565b92915050565b6000602082840312156200019557600080fd5b6000620001a5848285016200016b565b91505092915050565b6000620001bb82620001d6565b9050919050565b6000620001cf82620001ae565b9050919050565b600073ffffffffffffffffffffffffffffffffffffffff82169050919050565b6200020181620001c2565b81146200020d57600080fd5b50565b610fa680620002206000396000f3fe608060405234801561001057600080fd5b506004361061007d5760003560e01c8063715018a61161005b578063715018a6146100ee5780638da5cb5b146100f8578063a062578d14610116578063f2fde38b146101465761007d565b80632797c6c8146100825780634e71d92d1461009e5780635c712bc0146100bc575b600080fd5b61009c60048036038101906100979190610a47565b610162565b005b6100a6610498565b6040516100b39190610d63565b60405180910390f35b6100d660048036038101906100d19190610a1e565b610635565b6040516100e593929190610d7e565b60405180910390f35b6100f661065f565b005b6101006106e7565b60405161010d9190610c3f565b60405180910390f35b610130600480360381019061012b9190610a1e565b610710565b60405161013d9190610d63565b60405180910390f35b610160600480360381019061015b9190610a1e565b610789565b005b61016a610881565b73ffffffffffffffffffffffffffffffffffffffff166101886106e7565b73ffffffffffffffffffffffffffffffffffffffff16146101de576040517f08c379a00000000000000000000000000000000000000000000000000000000081526004016101d590610d23565b60405180910390fd5b6000600260009054906101000a900473ffffffffffffffffffffffffffffffffffffffff1673ffffffffffffffffffffffffffffffffffffffff1663dd62ed3e6102266106e7565b306040518363ffffffff1660e01b8152600401610244929190610c5a565b60206040518083038186803b15801561025c57600080fd5b505afa158015610270573d6000803e3d6000fd5b505050506040513d601f19601f820116820180604052508101906102949190610aac565b9050818110156102d9576040517f08c379a00000000000000000000000000000000000000000000000000000000081526004016102d090610d43565b60405180910390fd5b6000600160008573ffffffffffffffffffffffffffffffffffffffff1673ffffffffffffffffffffffffffffffffffffffff168152602001908152602001600020600001541461035e576040517f08c379a000000000000000000000000000000000000000000000000000000000815260040161035590610d03565b60405180910390fd5b600260009054906101000a900473ffffffffffffffffffffffffffffffffffffffff1673ffffffffffffffffffffffffffffffffffffffff166323b872dd6103a46106e7565b30856040518463ffffffff1660e01b81526004016103c493929190610c83565b602060405180830381600087803b1580156103de57600080fd5b505af11580156103f2573d6000803e3d6000fd5b505050506040513d601f19601f820116820180604052508101906104169190610a83565b5060405180606001604052808381526020014281526020016000815250600160008573ffffffffffffffffffffffffffffffffffffffff1673ffffffffffffffffffffffffffffffffffffffff168152602001908152602001600020600082015181600001556020820151816001015560408201518160020155905050505050565b6000600160003373ffffffffffffffffffffffffffffffffffffffff1673ffffffffffffffffffffffffffffffffffffffff16815260200190815260200160002060000154600160003373ffffffffffffffffffffffffffffffffffffffff1673ffffffffffffffffffffffffffffffffffffffff168152602001908152602001600020600201541061052a57600080fd5b600061053533610710565b9050600260009054906101000a900473ffffffffffffffffffffffffffffffffffffffff1673ffffffffffffffffffffffffffffffffffffffff1663a9059cbb33836040518363ffffffff1660e01b8152600401610594929190610cba565b602060405180830381600087803b1580156105ae57600080fd5b505af11580156105c2573d6000803e3d6000fd5b505050506040513d601f19601f820116820180604052508101906105e69190610a83565b5080600160003373ffffffffffffffffffffffffffffffffffffffff1673ffffffffffffffffffffffffffffffffffffffff168152602001908152602001600020600201819055508091505090565b60016020528060005260406000206000915090508060000154908060010154908060020154905083565b610667610881565b73ffffffffffffffffffffffffffffffffffffffff166106856106e7565b73ffffffffffffffffffffffffffffffffffffffff16146106db576040517f08c379a00000000000000000000000000000000000000000000000000000000081526004016106d290610d23565b60405180910390fd5b6106e56000610889565b565b60008060009054906101000a900473ffffffffffffffffffffffffffffffffffffffff16905090565b6000610782600160008473ffffffffffffffffffffffffffffffffffffffff1673ffffffffffffffffffffffffffffffffffffffff168152602001908152602001600020604051806060016040529081600082015481526020016001820154815260200160028201548152505061094d565b9050919050565b610791610881565b73ffffffffffffffffffffffffffffffffffffffff166107af6106e7565b73ffffffffffffffffffffffffffffffffffffffff1614610805576040517f08c379a00000000000000000000000000000000000000000000000000000000081526004016107fc90610d23565b60405180910390fd5b600073ffffffffffffffffffffffffffffffffffffffff168173ffffffffffffffffffffffffffffffffffffffff161415610875576040517f08c379a000000000000000000000000000000000000000000000000000000000815260040161086c90610ce3565b60405180910390fd5b61087e81610889565b50565b600033905090565b60008060009054906101000a900473ffffffffffffffffffffffffffffffffffffffff169050816000806101000a81548173ffffffffffffffffffffffffffffffffffffffff021916908373ffffffffffffffffffffffffffffffffffffffff1602179055508173ffffffffffffffffffffffffffffffffffffffff168173ffffffffffffffffffffffffffffffffffffffff167f8be0079c531659141344cd1fd0a4f28419497f9722a3daafe3b4186f6b6457e060405160405180910390a35050565b60008062278d008360200151426109649190610e51565b84600001516109739190610df7565b61097d9190610dc6565b905060008360400151826109919190610e51565b90506000846040015185600001516109a99190610e51565b9050818110156109be578093505050506109c5565b8193505050505b919050565b6000813590506109d981610f2b565b92915050565b6000815190506109ee81610f42565b92915050565b600081359050610a0381610f59565b92915050565b600081519050610a1881610f59565b92915050565b600060208284031215610a3057600080fd5b6000610a3e848285016109ca565b91505092915050565b60008060408385031215610a5a57600080fd5b6000610a68858286016109ca565b9250506020610a79858286016109f4565b9150509250929050565b600060208284031215610a9557600080fd5b6000610aa3848285016109df565b91505092915050565b600060208284031215610abe57600080fd5b6000610acc84828501610a09565b91505092915050565b610ade81610e85565b82525050565b6000610af1602683610db5565b91507f4f776e61626c653a206e6577206f776e657220697320746865207a65726f206160008301527f64647265737300000000000000000000000000000000000000000000000000006020830152604082019050919050565b6000610b57602483610db5565b91507f5665737420666f722074686973206164647265737320616c726561647920657860008301527f69737473000000000000000000000000000000000000000000000000000000006020830152604082019050919050565b6000610bbd602083610db5565b91507f4f776e61626c653a2063616c6c6572206973206e6f7420746865206f776e65726000830152602082019050919050565b6000610bfd601483610db5565b91507f4e6f7420656e6f75676820616c6c6f77616e63650000000000000000000000006000830152602082019050919050565b610c3981610ec3565b82525050565b6000602082019050610c546000830184610ad5565b92915050565b6000604082019050610c6f6000830185610ad5565b610c7c6020830184610ad5565b9392505050565b6000606082019050610c986000830186610ad5565b610ca56020830185610ad5565b610cb26040830184610c30565b949350505050565b6000604082019050610ccf6000830185610ad5565b610cdc6020830184610c30565b9392505050565b60006020820190508181036000830152610cfc81610ae4565b9050919050565b60006020820190508181036000830152610d1c81610b4a565b9050919050565b60006020820190508181036000830152610d3c81610bb0565b9050919050565b60006020820190508181036000830152610d5c81610bf0565b9050919050565b6000602082019050610d786000830184610c30565b92915050565b6000606082019050610d936000830186610c30565b610da06020830185610c30565b610dad6040830184610c30565b949350505050565b600082825260208201905092915050565b6000610dd182610ec3565b9150610ddc83610ec3565b925082610dec57610deb610efc565b5b828204905092915050565b6000610e0282610ec3565b9150610e0d83610ec3565b9250817fffffffffffffffffffffffffffffffffffffffffffffffffffffffffffffffff0483118215151615610e4657610e45610ecd565b5b828202905092915050565b6000610e5c82610ec3565b9150610e6783610ec3565b925082821015610e7a57610e79610ecd565b5b828203905092915050565b6000610e9082610ea3565b9050919050565b60008115159050919050565b600073ffffffffffffffffffffffffffffffffffffffff82169050919050565b6000819050919050565b7f4e487b7100000000000000000000000000000000000000000000000000000000600052601160045260246000fd5b7f4e487b7100000000000000000000000000000000000000000000000000000000600052601260045260246000fd5b610f3481610e85565b8114610f3f57600080fd5b50565b610f4b81610e97565b8114610f5657600080fd5b50565b610f6281610ec3565b8114610f6d57600080fd5b5056fea2646970667358221220300796bffa6399c1cfe9fdbf2cc72a4fb5837fc95a4d0c23a43aa8e2449c217864736f6c63430008000033",
  "linkReferences": {},
  "deployedLinkReferences": {}
}